{
  "contractName": "NftMarket",
  "abi": [
    {
      "inputs": [],
      "stateMutability": "nonpayable",
      "type": "constructor"
    },
    {
      "anonymous": false,
      "inputs": [
        {
          "indexed": true,
          "internalType": "address",
          "name": "owner",
          "type": "address"
        },
        {
          "indexed": true,
          "internalType": "address",
          "name": "approved",
          "type": "address"
        },
        {
          "indexed": true,
          "internalType": "uint256",
          "name": "tokenId",
          "type": "uint256"
        }
      ],
      "name": "Approval",
      "type": "event"
    },
    {
      "anonymous": false,
      "inputs": [
        {
          "indexed": true,
          "internalType": "address",
          "name": "owner",
          "type": "address"
        },
        {
          "indexed": true,
          "internalType": "address",
          "name": "operator",
          "type": "address"
        },
        {
          "indexed": false,
          "internalType": "bool",
          "name": "approved",
          "type": "bool"
        }
      ],
      "name": "ApprovalForAll",
      "type": "event"
    },
    {
      "anonymous": false,
      "inputs": [
        {
          "indexed": true,
          "internalType": "address",
          "name": "from",
          "type": "address"
        },
        {
          "indexed": true,
          "internalType": "address",
          "name": "to",
          "type": "address"
        },
        {
          "indexed": true,
          "internalType": "uint256",
          "name": "tokenId",
          "type": "uint256"
        }
      ],
      "name": "Transfer",
      "type": "event"
    },
    {
      "inputs": [
        {
          "internalType": "address",
          "name": "to",
          "type": "address"
        },
        {
          "internalType": "uint256",
          "name": "tokenId",
          "type": "uint256"
        }
      ],
      "name": "approve",
      "outputs": [],
      "stateMutability": "nonpayable",
      "type": "function"
    },
    {
      "inputs": [
        {
          "internalType": "address",
          "name": "owner",
          "type": "address"
        }
      ],
      "name": "balanceOf",
      "outputs": [
        {
          "internalType": "uint256",
          "name": "",
          "type": "uint256"
        }
      ],
      "stateMutability": "view",
      "type": "function",
      "constant": true
    },
    {
      "inputs": [
        {
          "internalType": "uint256",
          "name": "tokenId",
          "type": "uint256"
        }
      ],
      "name": "getApproved",
      "outputs": [
        {
          "internalType": "address",
          "name": "",
          "type": "address"
        }
      ],
      "stateMutability": "view",
      "type": "function",
      "constant": true
    },
    {
      "inputs": [
        {
          "internalType": "address",
          "name": "owner",
          "type": "address"
        },
        {
          "internalType": "address",
          "name": "operator",
          "type": "address"
        }
      ],
      "name": "isApprovedForAll",
      "outputs": [
        {
          "internalType": "bool",
          "name": "",
          "type": "bool"
        }
      ],
      "stateMutability": "view",
      "type": "function",
      "constant": true
    },
    {
      "inputs": [],
      "name": "name",
      "outputs": [
        {
          "internalType": "string",
          "name": "",
          "type": "string"
        }
      ],
      "stateMutability": "view",
      "type": "function",
      "constant": true
    },
    {
      "inputs": [
        {
          "internalType": "uint256",
          "name": "tokenId",
          "type": "uint256"
        }
      ],
      "name": "ownerOf",
      "outputs": [
        {
          "internalType": "address",
          "name": "",
          "type": "address"
        }
      ],
      "stateMutability": "view",
      "type": "function",
      "constant": true
    },
    {
      "inputs": [
        {
          "internalType": "address",
          "name": "from",
          "type": "address"
        },
        {
          "internalType": "address",
          "name": "to",
          "type": "address"
        },
        {
          "internalType": "uint256",
          "name": "tokenId",
          "type": "uint256"
        }
      ],
      "name": "safeTransferFrom",
      "outputs": [],
      "stateMutability": "nonpayable",
      "type": "function"
    },
    {
      "inputs": [
        {
          "internalType": "address",
          "name": "from",
          "type": "address"
        },
        {
          "internalType": "address",
          "name": "to",
          "type": "address"
        },
        {
          "internalType": "uint256",
          "name": "tokenId",
          "type": "uint256"
        },
        {
          "internalType": "bytes",
          "name": "data",
          "type": "bytes"
        }
      ],
      "name": "safeTransferFrom",
      "outputs": [],
      "stateMutability": "nonpayable",
      "type": "function"
    },
    {
      "inputs": [
        {
          "internalType": "address",
          "name": "operator",
          "type": "address"
        },
        {
          "internalType": "bool",
          "name": "approved",
          "type": "bool"
        }
      ],
      "name": "setApprovalForAll",
      "outputs": [],
      "stateMutability": "nonpayable",
      "type": "function"
    },
    {
      "inputs": [
        {
          "internalType": "bytes4",
          "name": "interfaceId",
          "type": "bytes4"
        }
      ],
      "name": "supportsInterface",
      "outputs": [
        {
          "internalType": "bool",
          "name": "",
          "type": "bool"
        }
      ],
      "stateMutability": "view",
      "type": "function",
      "constant": true
    },
    {
      "inputs": [],
      "name": "symbol",
      "outputs": [
        {
          "internalType": "string",
          "name": "",
          "type": "string"
        }
      ],
      "stateMutability": "view",
      "type": "function",
      "constant": true
    },
    {
      "inputs": [
        {
          "internalType": "uint256",
          "name": "tokenId",
          "type": "uint256"
        }
      ],
      "name": "tokenURI",
      "outputs": [
        {
          "internalType": "string",
          "name": "",
          "type": "string"
        }
      ],
      "stateMutability": "view",
      "type": "function",
      "constant": true
    },
    {
      "inputs": [
        {
          "internalType": "address",
          "name": "from",
          "type": "address"
        },
        {
          "internalType": "address",
          "name": "to",
          "type": "address"
        },
        {
          "internalType": "uint256",
          "name": "tokenId",
          "type": "uint256"
        }
      ],
      "name": "transferFrom",
      "outputs": [],
      "stateMutability": "nonpayable",
      "type": "function"
    },
    {
      "inputs": [
        {
          "internalType": "string",
          "name": "tokenURI",
          "type": "string"
        }
      ],
      "name": "mintToken",
      "outputs": [
        {
          "internalType": "uint256",
          "name": "",
          "type": "uint256"
        }
      ],
      "stateMutability": "payable",
      "type": "function",
      "payable": true
    }
  ],
  "bytecode": "0x60806040523480156200001157600080fd5b506040518060400160405280600c81526020017f4372656174757265734e465400000000000000000000000000000000000000008152506040518060400160405280600481526020017f434e46540000000000000000000000000000000000000000000000000000000081525081600090816200008f919062000324565b508060019081620000a1919062000324565b5050506200040b565b600081519050919050565b7f4e487b7100000000000000000000000000000000000000000000000000000000600052604160045260246000fd5b7f4e487b7100000000000000000000000000000000000000000000000000000000600052602260045260246000fd5b600060028204905060018216806200012c57607f821691505b602082108103620001425762000141620000e4565b5b50919050565b60008190508160005260206000209050919050565b60006020601f8301049050919050565b600082821b905092915050565b600060088302620001ac7fffffffffffffffffffffffffffffffffffffffffffffffffffffffffffffffff826200016d565b620001b886836200016d565b95508019841693508086168417925050509392505050565b6000819050919050565b6000819050919050565b600062000205620001ff620001f984620001d0565b620001da565b620001d0565b9050919050565b6000819050919050565b6200022183620001e4565b6200023962000230826200020c565b8484546200017a565b825550505050565b600090565b6200025062000241565b6200025d81848462000216565b505050565b5b8181101562000285576200027960008262000246565b60018101905062000263565b5050565b601f821115620002d4576200029e8162000148565b620002a9846200015d565b81016020851015620002b9578190505b620002d1620002c8856200015d565b83018262000262565b50505b505050565b600082821c905092915050565b6000620002f960001984600802620002d9565b1980831691505092915050565b6000620003148383620002e6565b9150826002028217905092915050565b6200032f82620000aa565b67ffffffffffffffff8111156200034b576200034a620000b5565b5b62000357825462000113565b6200036482828562000289565b600060209050601f8311600181146200039c576000841562000387578287015190505b62000393858262000306565b86555062000403565b601f198416620003ac8662000148565b60005b82811015620003d657848901518255600182019150602085019450602081019050620003af565b86831015620003f65784890151620003f2601f891682620002e6565b8355505b6001600288020188555050505b505050505050565b612b42806200041b6000396000f3fe6080604052600436106100dd5760003560e01c80636352211e1161007f578063a22cb46511610059578063a22cb465146102d7578063b88d4fde14610300578063c87b56dd14610329578063e985e9c514610366576100dd565b80636352211e1461023257806370a082311461026f57806395d89b41146102ac576100dd565b8063095ea7b3116100bb578063095ea7b31461018757806323b872dd146101b057806333eba49a146101d957806342842e0e14610209576100dd565b806301ffc9a7146100e257806306fdde031461011f578063081812fc1461014a575b600080fd5b3480156100ee57600080fd5b50610109600480360381019061010491906118d4565b6103a3565b604051610116919061191c565b60405180910390f35b34801561012b57600080fd5b50610134610485565b60405161014191906119c7565b60405180910390f35b34801561015657600080fd5b50610171600480360381019061016c9190611a1f565b610517565b60405161017e9190611a8d565b60405180910390f35b34801561019357600080fd5b506101ae60048036038101906101a99190611ad4565b61055d565b005b3480156101bc57600080fd5b506101d760048036038101906101d29190611b14565b610674565b005b6101f360048036038101906101ee9190611c9c565b6106d4565b6040516102009190611cf4565b60405180910390f35b34801561021557600080fd5b50610230600480360381019061022b9190611b14565b610715565b005b34801561023e57600080fd5b5061025960048036038101906102549190611a1f565b610735565b6040516102669190611a8d565b60405180910390f35b34801561027b57600080fd5b5061029660048036038101906102919190611d0f565b6107e6565b6040516102a39190611cf4565b60405180910390f35b3480156102b857600080fd5b506102c161089d565b6040516102ce91906119c7565b60405180910390f35b3480156102e357600080fd5b506102fe60048036038101906102f99190611d68565b61092f565b005b34801561030c57600080fd5b5061032760048036038101906103229190611e49565b610945565b005b34801561033557600080fd5b50610350600480360381019061034b9190611a1f565b6109a7565b60405161035d91906119c7565b60405180910390f35b34801561037257600080fd5b5061038d60048036038101906103889190611ecc565b610ab9565b60405161039a919061191c565b60405180910390f35b60007f80ac58cd000000000000000000000000000000000000000000000000000000007bffffffffffffffffffffffffffffffffffffffffffffffffffffffff1916827bffffffffffffffffffffffffffffffffffffffffffffffffffffffff1916148061046e57507f5b5e139f000000000000000000000000000000000000000000000000000000007bffffffffffffffffffffffffffffffffffffffffffffffffffffffff1916827bffffffffffffffffffffffffffffffffffffffffffffffffffffffff1916145b8061047e575061047d82610b4d565b5b9050919050565b60606000805461049490611f3b565b80601f01602080910402602001604051908101604052809291908181526020018280546104c090611f3b565b801561050d5780601f106104e25761010080835404028352916020019161050d565b820191906000526020600020905b8154815290600101906020018083116104f057829003601f168201915b5050505050905090565b600061052282610bb7565b6004600083815260200190815260200160002060009054906101000a900473ffffffffffffffffffffffffffffffffffffffff169050919050565b600061056882610735565b90508073ffffffffffffffffffffffffffffffffffffffff168373ffffffffffffffffffffffffffffffffffffffff16036105d8576040517f08c379a00000000000000000000000000000000000000000000000000000000081526004016105cf90611fde565b60405180910390fd5b8073ffffffffffffffffffffffffffffffffffffffff166105f7610c02565b73ffffffffffffffffffffffffffffffffffffffff161480610626575061062581610620610c02565b610ab9565b5b610665576040517f08c379a000000000000000000000000000000000000000000000000000000000815260040161065c90612070565b60405180910390fd5b61066f8383610c0a565b505050565b61068561067f610c02565b82610cc3565b6106c4576040517f08c379a00000000000000000000000000000000000000000000000000000000081526004016106bb90612102565b60405180910390fd5b6106cf838383610d58565b505050565b60006106e06008610fbe565b6106ea6007610fbe565b60006106f66008610fd4565b90506107023382610fe2565b61070c8184611000565b80915050919050565b61073083838360405180602001604052806000815250610945565b505050565b6000806002600084815260200190815260200160002060009054906101000a900473ffffffffffffffffffffffffffffffffffffffff169050600073ffffffffffffffffffffffffffffffffffffffff168173ffffffffffffffffffffffffffffffffffffffff16036107dd576040517f08c379a00000000000000000000000000000000000000000000000000000000081526004016107d49061216e565b60405180910390fd5b80915050919050565b60008073ffffffffffffffffffffffffffffffffffffffff168273ffffffffffffffffffffffffffffffffffffffff1603610856576040517f08c379a000000000000000000000000000000000000000000000000000000000815260040161084d90612200565b60405180910390fd5b600360008373ffffffffffffffffffffffffffffffffffffffff1673ffffffffffffffffffffffffffffffffffffffff168152602001908152602001600020549050919050565b6060600180546108ac90611f3b565b80601f01602080910402602001604051908101604052809291908181526020018280546108d890611f3b565b80156109255780601f106108fa57610100808354040283529160200191610925565b820191906000526020600020905b81548152906001019060200180831161090857829003601f168201915b5050505050905090565b61094161093a610c02565b838361106d565b5050565b610956610950610c02565b83610cc3565b610995576040517f08c379a000000000000000000000000000000000000000000000000000000000815260040161098c90612102565b60405180910390fd5b6109a1848484846111d9565b50505050565b60606109b282610bb7565b60006006600084815260200190815260200160002080546109d290611f3b565b80601f01602080910402602001604051908101604052809291908181526020018280546109fe90611f3b565b8015610a4b5780601f10610a2057610100808354040283529160200191610a4b565b820191906000526020600020905b815481529060010190602001808311610a2e57829003601f168201915b505050505090506000610a5c611235565b90506000815103610a71578192505050610ab4565b600082511115610aa6578082604051602001610a8e92919061225c565b60405160208183030381529060405292505050610ab4565b610aaf8461124c565b925050505b919050565b6000600560008473ffffffffffffffffffffffffffffffffffffffff1673ffffffffffffffffffffffffffffffffffffffff16815260200190815260200160002060008373ffffffffffffffffffffffffffffffffffffffff1673ffffffffffffffffffffffffffffffffffffffff16815260200190815260200160002060009054906101000a900460ff16905092915050565b60007f01ffc9a7000000000000000000000000000000000000000000000000000000007bffffffffffffffffffffffffffffffffffffffffffffffffffffffff1916827bffffffffffffffffffffffffffffffffffffffffffffffffffffffff1916149050919050565b610bc0816112b4565b610bff576040517f08c379a0000000000000000000000000000000000000000000000000000000008152600401610bf69061216e565b60405180910390fd5b50565b600033905090565b816004600083815260200190815260200160002060006101000a81548173ffffffffffffffffffffffffffffffffffffffff021916908373ffffffffffffffffffffffffffffffffffffffff160217905550808273ffffffffffffffffffffffffffffffffffffffff16610c7d83610735565b73ffffffffffffffffffffffffffffffffffffffff167f8c5be1e5ebec7d5bd14f71427d1e84f3dd0314c0f7b2291e5b200ac8c7c3b92560405160405180910390a45050565b600080610ccf83610735565b90508073ffffffffffffffffffffffffffffffffffffffff168473ffffffffffffffffffffffffffffffffffffffff161480610d115750610d108185610ab9565b5b80610d4f57508373ffffffffffffffffffffffffffffffffffffffff16610d3784610517565b73ffffffffffffffffffffffffffffffffffffffff16145b91505092915050565b8273ffffffffffffffffffffffffffffffffffffffff16610d7882610735565b73ffffffffffffffffffffffffffffffffffffffff1614610dce576040517f08c379a0000000000000000000000000000000000000000000000000000000008152600401610dc5906122f2565b60405180910390fd5b600073ffffffffffffffffffffffffffffffffffffffff168273ffffffffffffffffffffffffffffffffffffffff1603610e3d576040517f08c379a0000000000000000000000000000000000000000000000000000000008152600401610e3490612384565b60405180910390fd5b610e48838383611320565b610e53600082610c0a565b6001600360008573ffffffffffffffffffffffffffffffffffffffff1673ffffffffffffffffffffffffffffffffffffffff1681526020019081526020016000206000828254610ea391906123d3565b925050819055506001600360008473ffffffffffffffffffffffffffffffffffffffff1673ffffffffffffffffffffffffffffffffffffffff1681526020019081526020016000206000828254610efa9190612407565b92505081905550816002600083815260200190815260200160002060006101000a81548173ffffffffffffffffffffffffffffffffffffffff021916908373ffffffffffffffffffffffffffffffffffffffff160217905550808273ffffffffffffffffffffffffffffffffffffffff168473ffffffffffffffffffffffffffffffffffffffff167fddf252ad1be2c89b69c2b068fc378daa952ba7f163c4a11628f55a4df523b3ef60405160405180910390a4610fb9838383611325565b505050565b6001816000016000828254019250508190555050565b600081600001549050919050565b610ffc82826040518060200160405280600081525061132a565b5050565b611009826112b4565b611048576040517f08c379a000000000000000000000000000000000000000000000000000000000815260040161103f906124ad565b60405180910390fd5b806006600084815260200190815260200160002090816110689190612679565b505050565b8173ffffffffffffffffffffffffffffffffffffffff168373ffffffffffffffffffffffffffffffffffffffff16036110db576040517f08c379a00000000000000000000000000000000000000000000000000000000081526004016110d290612797565b60405180910390fd5b80600560008573ffffffffffffffffffffffffffffffffffffffff1673ffffffffffffffffffffffffffffffffffffffff16815260200190815260200160002060008473ffffffffffffffffffffffffffffffffffffffff1673ffffffffffffffffffffffffffffffffffffffff16815260200190815260200160002060006101000a81548160ff0219169083151502179055508173ffffffffffffffffffffffffffffffffffffffff168373ffffffffffffffffffffffffffffffffffffffff167f17307eab39ab6107e8899845ad3d59bd9653f200f220920489ca2b5937696c31836040516111cc919061191c565b60405180910390a3505050565b6111e4848484610d58565b6111f084848484611385565b61122f576040517f08c379a000000000000000000000000000000000000000000000000000000000815260040161122690612829565b60405180910390fd5b50505050565b606060405180602001604052806000815250905090565b606061125782610bb7565b6000611261611235565b9050600081511161128157604051806020016040528060008152506112ac565b8061128b8461150c565b60405160200161129c92919061225c565b6040516020818303038152906040525b915050919050565b60008073ffffffffffffffffffffffffffffffffffffffff166002600084815260200190815260200160002060009054906101000a900473ffffffffffffffffffffffffffffffffffffffff1673ffffffffffffffffffffffffffffffffffffffff1614159050919050565b505050565b505050565b611334838361166c565b6113416000848484611385565b611380576040517f08c379a000000000000000000000000000000000000000000000000000000000815260040161137790612829565b60405180910390fd5b505050565b60006113a68473ffffffffffffffffffffffffffffffffffffffff16611845565b156114ff578373ffffffffffffffffffffffffffffffffffffffff1663150b7a026113cf610c02565b8786866040518563ffffffff1660e01b81526004016113f1949392919061289e565b6020604051808303816000875af192505050801561142d57506040513d601f19601f8201168201806040525081019061142a91906128ff565b60015b6114af573d806000811461145d576040519150601f19603f3d011682016040523d82523d6000602084013e611462565b606091505b5060008151036114a7576040517f08c379a000000000000000000000000000000000000000000000000000000000815260040161149e90612829565b60405180910390fd5b805181602001fd5b63150b7a0260e01b7bffffffffffffffffffffffffffffffffffffffffffffffffffffffff1916817bffffffffffffffffffffffffffffffffffffffffffffffffffffffff191614915050611504565b600190505b949350505050565b606060008203611553576040518060400160405280600181526020017f30000000000000000000000000000000000000000000000000000000000000008152509050611667565b600082905060005b6000821461158557808061156e9061292c565b915050600a8261157e91906129a3565b915061155b565b60008167ffffffffffffffff8111156115a1576115a0611b71565b5b6040519080825280601f01601f1916602001820160405280156115d35781602001600182028036833780820191505090505b5090505b60008514611660576001826115ec91906123d3565b9150600a856115fb91906129d4565b60306116079190612407565b60f81b81838151811061161d5761161c612a05565b5b60200101907effffffffffffffffffffffffffffffffffffffffffffffffffffffffffffff1916908160001a905350600a8561165991906129a3565b94506115d7565b8093505050505b919050565b600073ffffffffffffffffffffffffffffffffffffffff168273ffffffffffffffffffffffffffffffffffffffff16036116db576040517f08c379a00000000000000000000000000000000000000000000000000000000081526004016116d290612a80565b60405180910390fd5b6116e4816112b4565b15611724576040517f08c379a000000000000000000000000000000000000000000000000000000000815260040161171b90612aec565b60405180910390fd5b61173060008383611320565b6001600360008473ffffffffffffffffffffffffffffffffffffffff1673ffffffffffffffffffffffffffffffffffffffff16815260200190815260200160002060008282546117809190612407565b92505081905550816002600083815260200190815260200160002060006101000a81548173ffffffffffffffffffffffffffffffffffffffff021916908373ffffffffffffffffffffffffffffffffffffffff160217905550808273ffffffffffffffffffffffffffffffffffffffff16600073ffffffffffffffffffffffffffffffffffffffff167fddf252ad1be2c89b69c2b068fc378daa952ba7f163c4a11628f55a4df523b3ef60405160405180910390a461184160008383611325565b5050565b6000808273ffffffffffffffffffffffffffffffffffffffff163b119050919050565b6000604051905090565b600080fd5b600080fd5b60007fffffffff0000000000000000000000000000000000000000000000000000000082169050919050565b6118b18161187c565b81146118bc57600080fd5b50565b6000813590506118ce816118a8565b92915050565b6000602082840312156118ea576118e9611872565b5b60006118f8848285016118bf565b91505092915050565b60008115159050919050565b61191681611901565b82525050565b6000602082019050611931600083018461190d565b92915050565b600081519050919050565b600082825260208201905092915050565b60005b83811015611971578082015181840152602081019050611956565b60008484015250505050565b6000601f19601f8301169050919050565b600061199982611937565b6119a38185611942565b93506119b3818560208601611953565b6119bc8161197d565b840191505092915050565b600060208201905081810360008301526119e1818461198e565b905092915050565b6000819050919050565b6119fc816119e9565b8114611a0757600080fd5b50565b600081359050611a19816119f3565b92915050565b600060208284031215611a3557611a34611872565b5b6000611a4384828501611a0a565b91505092915050565b600073ffffffffffffffffffffffffffffffffffffffff82169050919050565b6000611a7782611a4c565b9050919050565b611a8781611a6c565b82525050565b6000602082019050611aa26000830184611a7e565b92915050565b611ab181611a6c565b8114611abc57600080fd5b50565b600081359050611ace81611aa8565b92915050565b60008060408385031215611aeb57611aea611872565b5b6000611af985828601611abf565b9250506020611b0a85828601611a0a565b9150509250929050565b600080600060608486031215611b2d57611b2c611872565b5b6000611b3b86828701611abf565b9350506020611b4c86828701611abf565b9250506040611b5d86828701611a0a565b9150509250925092565b600080fd5b600080fd5b7f4e487b7100000000000000000000000000000000000000000000000000000000600052604160045260246000fd5b611ba98261197d565b810181811067ffffffffffffffff82111715611bc857611bc7611b71565b5b80604052505050565b6000611bdb611868565b9050611be78282611ba0565b919050565b600067ffffffffffffffff821115611c0757611c06611b71565b5b611c108261197d565b9050602081019050919050565b82818337600083830152505050565b6000611c3f611c3a84611bec565b611bd1565b905082815260208101848484011115611c5b57611c5a611b6c565b5b611c66848285611c1d565b509392505050565b600082601f830112611c8357611c82611b67565b5b8135611c93848260208601611c2c565b91505092915050565b600060208284031215611cb257611cb1611872565b5b600082013567ffffffffffffffff811115611cd057611ccf611877565b5b611cdc84828501611c6e565b91505092915050565b611cee816119e9565b82525050565b6000602082019050611d096000830184611ce5565b92915050565b600060208284031215611d2557611d24611872565b5b6000611d3384828501611abf565b91505092915050565b611d4581611901565b8114611d5057600080fd5b50565b600081359050611d6281611d3c565b92915050565b60008060408385031215611d7f57611d7e611872565b5b6000611d8d85828601611abf565b9250506020611d9e85828601611d53565b9150509250929050565b600067ffffffffffffffff821115611dc357611dc2611b71565b5b611dcc8261197d565b9050602081019050919050565b6000611dec611de784611da8565b611bd1565b905082815260208101848484011115611e0857611e07611b6c565b5b611e13848285611c1d565b509392505050565b600082601f830112611e3057611e2f611b67565b5b8135611e40848260208601611dd9565b91505092915050565b60008060008060808587031215611e6357611e62611872565b5b6000611e7187828801611abf565b9450506020611e8287828801611abf565b9350506040611e9387828801611a0a565b925050606085013567ffffffffffffffff811115611eb457611eb3611877565b5b611ec087828801611e1b565b91505092959194509250565b60008060408385031215611ee357611ee2611872565b5b6000611ef185828601611abf565b9250506020611f0285828601611abf565b9150509250929050565b7f4e487b7100000000000000000000000000000000000000000000000000000000600052602260045260246000fd5b60006002820490506001821680611f5357607f821691505b602082108103611f6657611f65611f0c565b5b50919050565b7f4552433732313a20617070726f76616c20746f2063757272656e74206f776e6560008201527f7200000000000000000000000000000000000000000000000000000000000000602082015250565b6000611fc8602183611942565b9150611fd382611f6c565b604082019050919050565b60006020820190508181036000830152611ff781611fbb565b9050919050565b7f4552433732313a20617070726f76652063616c6c6572206973206e6f7420746f60008201527f6b656e206f776e6572206e6f7220617070726f76656420666f7220616c6c0000602082015250565b600061205a603e83611942565b915061206582611ffe565b604082019050919050565b600060208201905081810360008301526120898161204d565b9050919050565b7f4552433732313a2063616c6c6572206973206e6f7420746f6b656e206f776e6560008201527f72206e6f7220617070726f766564000000000000000000000000000000000000602082015250565b60006120ec602e83611942565b91506120f782612090565b604082019050919050565b6000602082019050818103600083015261211b816120df565b9050919050565b7f4552433732313a20696e76616c696420746f6b656e2049440000000000000000600082015250565b6000612158601883611942565b915061216382612122565b602082019050919050565b600060208201905081810360008301526121878161214b565b9050919050565b7f4552433732313a2061646472657373207a65726f206973206e6f74206120766160008201527f6c6964206f776e65720000000000000000000000000000000000000000000000602082015250565b60006121ea602983611942565b91506121f58261218e565b604082019050919050565b60006020820190508181036000830152612219816121dd565b9050919050565b600081905092915050565b600061223682611937565b6122408185612220565b9350612250818560208601611953565b80840191505092915050565b6000612268828561222b565b9150612274828461222b565b91508190509392505050565b7f4552433732313a207472616e736665722066726f6d20696e636f72726563742060008201527f6f776e6572000000000000000000000000000000000000000000000000000000602082015250565b60006122dc602583611942565b91506122e782612280565b604082019050919050565b6000602082019050818103600083015261230b816122cf565b9050919050565b7f4552433732313a207472616e7366657220746f20746865207a65726f2061646460008201527f7265737300000000000000000000000000000000000000000000000000000000602082015250565b600061236e602483611942565b915061237982612312565b604082019050919050565b6000602082019050818103600083015261239d81612361565b9050919050565b7f4e487b7100000000000000000000000000000000000000000000000000000000600052601160045260246000fd5b60006123de826119e9565b91506123e9836119e9565b9250828203905081811115612401576124006123a4565b5b92915050565b6000612412826119e9565b915061241d836119e9565b9250828201905080821115612435576124346123a4565b5b92915050565b7f45524337323155524953746f726167653a2055524920736574206f66206e6f6e60008201527f6578697374656e7420746f6b656e000000000000000000000000000000000000602082015250565b6000612497602e83611942565b91506124a28261243b565b604082019050919050565b600060208201905081810360008301526124c68161248a565b9050919050565b60008190508160005260206000209050919050565b60006020601f8301049050919050565b600082821b905092915050565b60006008830261252f7fffffffffffffffffffffffffffffffffffffffffffffffffffffffffffffffff826124f2565b61253986836124f2565b95508019841693508086168417925050509392505050565b6000819050919050565b600061257661257161256c846119e9565b612551565b6119e9565b9050919050565b6000819050919050565b6125908361255b565b6125a461259c8261257d565b8484546124ff565b825550505050565b600090565b6125b96125ac565b6125c4818484612587565b505050565b5b818110156125e8576125dd6000826125b1565b6001810190506125ca565b5050565b601f82111561262d576125fe816124cd565b612607846124e2565b81016020851015612616578190505b61262a612622856124e2565b8301826125c9565b50505b505050565b600082821c905092915050565b600061265060001984600802612632565b1980831691505092915050565b6000612669838361263f565b9150826002028217905092915050565b61268282611937565b67ffffffffffffffff81111561269b5761269a611b71565b5b6126a58254611f3b565b6126b08282856125ec565b600060209050601f8311600181146126e357600084156126d1578287015190505b6126db858261265d565b865550612743565b601f1984166126f1866124cd565b60005b82811015612719578489015182556001820191506020850194506020810190506126f4565b868310156127365784890151612732601f89168261263f565b8355505b6001600288020188555050505b505050505050565b7f4552433732313a20617070726f766520746f2063616c6c657200000000000000600082015250565b6000612781601983611942565b915061278c8261274b565b602082019050919050565b600060208201905081810360008301526127b081612774565b9050919050565b7f4552433732313a207472616e7366657220746f206e6f6e20455243373231526560008201527f63656976657220696d706c656d656e7465720000000000000000000000000000602082015250565b6000612813603283611942565b915061281e826127b7565b604082019050919050565b6000602082019050818103600083015261284281612806565b9050919050565b600081519050919050565b600082825260208201905092915050565b600061287082612849565b61287a8185612854565b935061288a818560208601611953565b6128938161197d565b840191505092915050565b60006080820190506128b36000830187611a7e565b6128c06020830186611a7e565b6128cd6040830185611ce5565b81810360608301526128df8184612865565b905095945050505050565b6000815190506128f9816118a8565b92915050565b60006020828403121561291557612914611872565b5b6000612923848285016128ea565b91505092915050565b6000612937826119e9565b91507fffffffffffffffffffffffffffffffffffffffffffffffffffffffffffffffff8203612969576129686123a4565b5b600182019050919050565b7f4e487b7100000000000000000000000000000000000000000000000000000000600052601260045260246000fd5b60006129ae826119e9565b91506129b9836119e9565b9250826129c9576129c8612974565b5b828204905092915050565b60006129df826119e9565b91506129ea836119e9565b9250826129fa576129f9612974565b5b828206905092915050565b7f4e487b7100000000000000000000000000000000000000000000000000000000600052603260045260246000fd5b7f4552433732313a206d696e7420746f20746865207a65726f2061646472657373600082015250565b6000612a6a602083611942565b9150612a7582612a34565b602082019050919050565b60006020820190508181036000830152612a9981612a5d565b9050919050565b7f4552433732313a20746f6b656e20616c7265616479206d696e74656400000000600082015250565b6000612ad6601c83611942565b9150612ae182612aa0565b602082019050919050565b60006020820190508181036000830152612b0581612ac9565b905091905056fea264697066735822122067daa68c30704d3c80e0ecdf13352b5ad16dc0a92d22d444195312d0ad3a792c64736f6c63430008110033",
  "immutableReferences": {},
  "source": "// SPDX-License-Identifier: MIT\npragma solidity >=0.5.0 <0.9.0;\nimport \"@openzeppelin/contracts/token/ERC721/extensions/ERC721URIStorage.sol\";\nimport \"@openzeppelin/contracts/utils/Counters.sol\";\n\ncontract NftMarket is ERC721URIStorage {\n    using Counters for Counters.Counter;\n\n    Counters.Counter private _listedItems;\n    Counters.Counter private _tokenIds;\n\n    constructor() ERC721(\"CreaturesNFT\", \"CNFT\") {}\n\n    function mintToken(string memory tokenURI)\n        public\n        payable\n        returns (uint256)\n    {\n        _tokenIds.increment();\n        _listedItems.increment();\n\n        uint256 newTokenId = _tokenIds.current();\n\n        _safeMint(msg.sender, newTokenId);\n        _setTokenURI(newTokenId, tokenURI);\n\n        return newTokenId;\n    }\n}\n",
  "sourcePath": "/home/mauricio/Documentos/blockchain/nft-marketplace/contracts/NftMarket.sol",
  "compiler": {
    "name": "solc",
    "version": "0.8.17+commit.8df45f5f.Emscripten.clang"
  },
  "schemaVersion": "3.4.10",
  "updatedAt": "2022-11-10T16:05:27.117Z",
  "networkType": "ethereum",
  "devdoc": {
    "kind": "dev",
    "methods": {
      "approve(address,uint256)": {
        "details": "See {IERC721-approve}."
      },
      "balanceOf(address)": {
        "details": "See {IERC721-balanceOf}."
      },
      "getApproved(uint256)": {
        "details": "See {IERC721-getApproved}."
      },
      "isApprovedForAll(address,address)": {
        "details": "See {IERC721-isApprovedForAll}."
      },
      "name()": {
        "details": "See {IERC721Metadata-name}."
      },
      "ownerOf(uint256)": {
        "details": "See {IERC721-ownerOf}."
      },
      "safeTransferFrom(address,address,uint256)": {
        "details": "See {IERC721-safeTransferFrom}."
      },
      "safeTransferFrom(address,address,uint256,bytes)": {
        "details": "See {IERC721-safeTransferFrom}."
      },
      "setApprovalForAll(address,bool)": {
        "details": "See {IERC721-setApprovalForAll}."
      },
      "supportsInterface(bytes4)": {
        "details": "See {IERC165-supportsInterface}."
      },
      "symbol()": {
        "details": "See {IERC721Metadata-symbol}."
      },
      "tokenURI(uint256)": {
        "details": "See {IERC721Metadata-tokenURI}."
      },
      "transferFrom(address,address,uint256)": {
        "details": "See {IERC721-transferFrom}."
      }
    },
    "version": 1
  },
  "userdoc": {
    "kind": "user",
    "methods": {},
    "version": 1
  }
}